{
  "address": "0xcd29aAA74d0B415F616cF88a1EfCc5BdB0da67d2",
  "abi": [
    {
      "inputs": [
        {
          "internalType": "address",
          "name": "_tokenA",
          "type": "address"
        },
        {
          "internalType": "address",
          "name": "_tokenB",
          "type": "address"
        }
      ],
      "stateMutability": "nonpayable",
      "type": "constructor"
    },
    {
      "inputs": [
        {
          "internalType": "address",
          "name": "owner",
          "type": "address"
        }
      ],
      "name": "OwnableInvalidOwner",
      "type": "error"
    },
    {
      "inputs": [
        {
          "internalType": "address",
          "name": "account",
          "type": "address"
        }
      ],
      "name": "OwnableUnauthorizedAccount",
      "type": "error"
    },
    {
      "anonymous": false,
      "inputs": [
        {
          "indexed": false,
          "internalType": "uint256",
          "name": "amountA",
          "type": "uint256"
        },
        {
          "indexed": false,
          "internalType": "uint256",
          "name": "amountB",
          "type": "uint256"
        }
      ],
      "name": "LiquidityAdded",
      "type": "event"
    },
    {
      "anonymous": false,
      "inputs": [
        {
          "indexed": false,
          "internalType": "uint256",
          "name": "amountA",
          "type": "uint256"
        },
        {
          "indexed": false,
          "internalType": "uint256",
          "name": "amountB",
          "type": "uint256"
        }
      ],
      "name": "LiquidityRemoved",
      "type": "event"
    },
    {
      "anonymous": false,
      "inputs": [
        {
          "indexed": true,
          "internalType": "address",
          "name": "previousOwner",
          "type": "address"
        },
        {
          "indexed": true,
          "internalType": "address",
          "name": "newOwner",
          "type": "address"
        }
      ],
      "name": "OwnershipTransferred",
      "type": "event"
    },
    {
      "anonymous": false,
      "inputs": [
        {
          "indexed": false,
          "internalType": "address",
          "name": "spenderAddress",
          "type": "address"
        },
        {
          "indexed": false,
          "internalType": "address",
          "name": "tokenAddressIn",
          "type": "address"
        },
        {
          "indexed": false,
          "internalType": "uint256",
          "name": "amountIn",
          "type": "uint256"
        },
        {
          "indexed": false,
          "internalType": "address",
          "name": "tokenAddressOut",
          "type": "address"
        },
        {
          "indexed": false,
          "internalType": "uint256",
          "name": "amountOut",
          "type": "uint256"
        }
      ],
      "name": "TokensSwapped",
      "type": "event"
    },
    {
      "anonymous": false,
      "inputs": [
        {
          "indexed": false,
          "internalType": "address",
          "name": "owner",
          "type": "address"
        },
        {
          "indexed": false,
          "internalType": "address",
          "name": "tokenA",
          "type": "address"
        },
        {
          "indexed": false,
          "internalType": "address",
          "name": "tokenB",
          "type": "address"
        }
      ],
      "name": "constructed",
      "type": "event"
    },
    {
      "inputs": [
        {
          "internalType": "uint256",
          "name": "amountA",
          "type": "uint256"
        },
        {
          "internalType": "uint256",
          "name": "amountB",
          "type": "uint256"
        }
      ],
      "name": "addLiquidity",
      "outputs": [],
      "stateMutability": "nonpayable",
      "type": "function"
    },
    {
      "inputs": [
        {
          "internalType": "address",
          "name": "_token",
          "type": "address"
        }
      ],
      "name": "getPrice",
      "outputs": [
        {
          "internalType": "uint256",
          "name": "",
          "type": "uint256"
        }
      ],
      "stateMutability": "view",
      "type": "function"
    },
    {
      "inputs": [],
      "name": "owner",
      "outputs": [
        {
          "internalType": "address",
          "name": "",
          "type": "address"
        }
      ],
      "stateMutability": "view",
      "type": "function"
    },
    {
      "inputs": [
        {
          "internalType": "uint256",
          "name": "amountA",
          "type": "uint256"
        },
        {
          "internalType": "uint256",
          "name": "amountB",
          "type": "uint256"
        }
      ],
      "name": "removeLiquidity",
      "outputs": [],
      "stateMutability": "nonpayable",
      "type": "function"
    },
    {
      "inputs": [],
      "name": "renounceOwnership",
      "outputs": [],
      "stateMutability": "nonpayable",
      "type": "function"
    },
    {
      "inputs": [
        {
          "internalType": "uint256",
          "name": "amountAIn",
          "type": "uint256"
        }
      ],
      "name": "swapAforB",
      "outputs": [],
      "stateMutability": "nonpayable",
      "type": "function"
    },
    {
      "inputs": [
        {
          "internalType": "uint256",
          "name": "amountBIn",
          "type": "uint256"
        }
      ],
      "name": "swapBforA",
      "outputs": [],
      "stateMutability": "nonpayable",
      "type": "function"
    },
    {
      "inputs": [
        {
          "internalType": "address",
          "name": "newOwner",
          "type": "address"
        }
      ],
      "name": "transferOwnership",
      "outputs": [],
      "stateMutability": "nonpayable",
      "type": "function"
    }
  ],
  "transactionHash": "0x32d7257afd3c5ea4fb312bd199d3f74be9c08992c140a33b3d69d9d9df7e93d5",
  "args": [
    "0xe672aC50701eaa4E600b981D80a085403b2C46B2",
    "0xa5B6301D6E63e18bA5753D8B60199110dBAb3b09"
  ],
  "numDeployments": 2,
  "solcInputHash": "35bf20653b17f3479cc25a0060f86d3c",
  "bytecode": "0x6080604052670de0b6b3a764000060035534801561001c57600080fd5b50604051610d31380380610d3183398101604081905261003b9161014d565b338061006157604051631e4fbdf760e01b81526000600482015260240160405180910390fd5b61006a816100e1565b50600180546001600160a01b038481166001600160a01b03199283168117909355600280549185169190921681179091556040805133815260208101939093528201527f3f0186f55f2942289aeb5c1daab637831dbe6b21121c8c7f5a22fe382c04ce2e9060600160405180910390a15050610180565b600080546001600160a01b038381166001600160a01b0319831681178455604051919092169283917f8be0079c531659141344cd1fd0a4f28419497f9722a3daafe3b4186f6b6457e09190a35050565b80516001600160a01b038116811461014857600080fd5b919050565b6000806040838503121561016057600080fd5b61016983610131565b915061017760208401610131565b90509250929050565b610ba28061018f6000396000f3fe608060405234801561001057600080fd5b50600436106100885760003560e01c80639cd441da1161005b5780639cd441da146100eb5780639d7de6b3146100fe578063e4f1f70a14610111578063f2fde38b1461012457600080fd5b806341976e091461008d578063715018a6146100b35780638014a7aa146100bd5780638da5cb5b146100d0575b600080fd5b6100a061009b366004610a4b565b610137565b6040519081526020015b60405180910390f35b6100bb610237565b005b6100bb6100cb366004610a7b565b61024b565b6000546040516001600160a01b0390911681526020016100aa565b6100bb6100f9366004610a94565b61026b565b6100bb61010c366004610a94565b610444565b6100bb61011f366004610a7b565b610605565b6100bb610132366004610a4b565b610622565b60015460009082906001600160a01b038083169116148061016557506002546001600160a01b038281169116145b6101b65760405162461bcd60e51b815260206004820152601960248201527f5468652061646472657373206973206e6f742076616c69642e0000000000000060448201526064015b60405180910390fd5b600080806101c261065d565b909250905081158015906101d65750600081115b1561022d576001546001600160a01b03908116908716036102115781600354826102009190610acc565b61020a9190610ae9565b925061022d565b80600354836102209190610acc565b61022a9190610ae9565b92505b5090949350505050565b61023f61074b565b6102496000610778565b565b600254600154610268916001600160a01b039081169116836107c8565b50565b61027361074b565b818160008061028061065d565b9092509050801561030a57826003548561029a9190610acc565b6102a49190610ae9565b81600354846102b39190610acc565b6102bd9190610ae9565b1461030a5760405162461bcd60e51b815260206004820152601d60248201527f54686520616d6f756e74206d757374206265206571756976616c656e7400000060448201526064016101ad565b6001546040516323b872dd60e01b8152336004820152306024820152604481018890526001600160a01b03909116906323b872dd906064016020604051808303816000875af1158015610361573d6000803e3d6000fd5b505050506040513d601f19601f820116820180604052508101906103859190610b0b565b506002546040516323b872dd60e01b8152336004820152306024820152604481018790526001600160a01b03909116906323b872dd906064016020604051808303816000875af11580156103dd573d6000803e3d6000fd5b505050506040513d601f19601f820116820180604052508101906104019190610b0b565b5060408051878152602081018790527f38f8a0c92f4c5b0b6877f878cb4c0c8d348a47b76d716c8e78f425043df9515b91015b60405180910390a1505050505050565b61044c61074b565b818160008061045961065d565b909250905080156104e35782600354856104739190610acc565b61047d9190610ae9565b816003548461048c9190610acc565b6104969190610ae9565b146104e35760405162461bcd60e51b815260206004820152601d60248201527f54686520616d6f756e74206d757374206265206571756976616c656e7400000060448201526064016101ad565b60015460405163a9059cbb60e01b8152336004820152602481018890526001600160a01b039091169063a9059cbb906044016020604051808303816000875af1158015610534573d6000803e3d6000fd5b505050506040513d601f19601f820116820180604052508101906105589190610b0b565b5060025460405163a9059cbb60e01b8152336004820152602481018790526001600160a01b039091169063a9059cbb906044016020604051808303816000875af11580156105aa573d6000803e3d6000fd5b505050506040513d601f19601f820116820180604052508101906105ce9190610b0b565b5060408051878152602081018790527f6f0f96292ae0038c04f9b6bab30f185d9ca02c471d0983f563f2a4f674aef1379101610434565b600154600254610268916001600160a01b039081169116836107c8565b61062a61074b565b6001600160a01b03811661065457604051631e4fbdf760e01b8152600060048201526024016101ad565b61026881610778565b6001546040516370a0823160e01b8152306004820152600091829182916001600160a01b0316906370a0823190602401602060405180830381865afa1580156106aa573d6000803e3d6000fd5b505050506040513d601f19601f820116820180604052508101906106ce9190610b2d565b6002546040516370a0823160e01b81523060048201529192506000916001600160a01b03909116906370a0823190602401602060405180830381865afa15801561071c573d6000803e3d6000fd5b505050506040513d601f19601f820116820180604052508101906107409190610b2d565b919491935090915050565b6000546001600160a01b031633146102495760405163118cdaa760e01b81523360048201526024016101ad565b600080546001600160a01b038381166001600160a01b0319831681178455604051919092169283917f8be0079c531659141344cd1fd0a4f28419497f9722a3daafe3b4186f6b6457e09190a35050565b6040516370a0823160e01b8152336004820152839083906000908190819086906001600160a01b038716906370a0823190602401602060405180830381865afa158015610819573d6000803e3d6000fd5b505050506040513d601f19601f8201168201806040525081019061083d9190610b2d565b10156108825760405162461bcd60e51b8152602060048201526014602482015273496e73756666696369656e742062616c616e636560601b60448201526064016101ad565b61088a61065d565b6040516323b872dd60e01b81523360048201523060248201526044810189905291935091506001600160a01b038616906323b872dd906064016020604051808303816000875af11580156108e2573d6000803e3d6000fd5b505050506040513d601f19601f820116820180604052508101906109069190610b0b565b506001546001600160a01b039081169086160361094c576109278683610b46565b6109318284610acc565b61093b9190610ae9565b6109459082610b59565b9250610978565b816109578783610b59565b6109618385610acc565b61096b9190610ae9565b6109759190610b59565b92505b60405163a9059cbb60e01b8152336004820152602481018490526001600160a01b0385169063a9059cbb906044016020604051808303816000875af11580156109c5573d6000803e3d6000fd5b505050506040513d601f19601f820116820180604052508101906109e99190610b0b565b50604080513381526001600160a01b038781166020830152818301899052861660608201526080810185905290517f631fb37dba9bbcb8b2f3be2d669e365ae9f1bd850cc57dfe8b7ccd7d979a2bba9181900360a00190a15050505050505050565b600060208284031215610a5d57600080fd5b81356001600160a01b0381168114610a7457600080fd5b9392505050565b600060208284031215610a8d57600080fd5b5035919050565b60008060408385031215610aa757600080fd5b50508035926020909101359150565b634e487b7160e01b600052601160045260246000fd5b8082028115828204841417610ae357610ae3610ab6565b92915050565b600082610b0657634e487b7160e01b600052601260045260246000fd5b500490565b600060208284031215610b1d57600080fd5b81518015158114610a7457600080fd5b600060208284031215610b3f57600080fd5b5051919050565b80820180821115610ae357610ae3610ab6565b81810381811115610ae357610ae3610ab656fea26469706673582212202bfd7859ac0a92efbef4578a637b3b2fbd45c5e33c670e7558fe19f98a1c090764736f6c63430008140033",
  "devdoc": {
    "details": "defino un tokenA y un tokenB de tipo interface de IERC20. Por otro lado, determino los decimals para cuando tenga que hacer el getprice.",
    "errors": {
      "OwnableInvalidOwner(address)": [
        {
          "details": "The owner is not a valid owner account. (eg. `address(0)`)"
        }
      ],
      "OwnableUnauthorizedAccount(address)": [
        {
          "details": "The caller account is not authorized to perform an operation."
        }
      ]
    },
    "events": {
      "LiquidityAdded(uint256,uint256)": {
        "details": "genero un evento cuando se agrega liquidez."
      },
      "LiquidityRemoved(uint256,uint256)": {
        "details": "genero un evento cuando se quita liquidez."
      },
      "TokensSwapped(address,address,uint256,address,uint256)": {
        "details": "genero un evento cuando se realiza un swap."
      }
    },
    "kind": "dev",
    "methods": {
      "addLiquidity(uint256,uint256)": {
        "details": "addLiquidity: Transfiero desde el owner de los tokens (msg.sender) a este contrato (address(this)). Previo a esto, es preciso que el owner (msg.sender) autorice la transferencia."
      },
      "constructor": {
        "details": "defino el owner como el msg.sender que crea el usuario.",
        "params": {
          "_tokenA": "recibo el address del tokenA.",
          "_tokenB": "recibo el address del tokenB."
        }
      },
      "owner()": {
        "details": "Returns the address of the current owner."
      },
      "removeLiquidity(uint256,uint256)": {
        "details": "removeLiquidity: Transfiero los tokens de este contrato al owner (msg.sender)."
      },
      "renounceOwnership()": {
        "details": "Leaves the contract without owner. It will not be possible to call `onlyOwner` functions. Can only be called by the current owner. NOTE: Renouncing ownership will leave the contract without an owner, thereby disabling any functionality that is only available to the owner."
      },
      "swapAforB(uint256)": {
        "details": "en pos de encapsular código, swapAforB y swapBforA llaman a una misma funcion privada llamada swap."
      },
      "transferOwnership(address)": {
        "details": "Transfers ownership of the contract to a new account (`newOwner`). Can only be called by the current owner."
      }
    },
    "version": 1
  },
  "userdoc": {
    "kind": "user",
    "methods": {},
    "version": 1
  },
  "storageLayout": {
    "storage": [
      {
        "astId": 8,
        "contract": "contracts/SimpleDEX.sol:SimpleDEX",
        "label": "_owner",
        "offset": 0,
        "slot": "0",
        "type": "t_address"
      },
      {
        "astId": 943,
        "contract": "contracts/SimpleDEX.sol:SimpleDEX",
        "label": "tokenA",
        "offset": 0,
        "slot": "1",
        "type": "t_contract(IERC20)877"
      },
      {
        "astId": 946,
        "contract": "contracts/SimpleDEX.sol:SimpleDEX",
        "label": "tokenB",
        "offset": 0,
        "slot": "2",
        "type": "t_contract(IERC20)877"
      },
      {
        "astId": 951,
        "contract": "contracts/SimpleDEX.sol:SimpleDEX",
        "label": "decimals",
        "offset": 0,
        "slot": "3",
        "type": "t_uint256"
      }
    ],
    "types": {
      "t_address": {
        "encoding": "inplace",
        "label": "address",
        "numberOfBytes": "20"
      },
      "t_contract(IERC20)877": {
        "encoding": "inplace",
        "label": "contract IERC20",
        "numberOfBytes": "20"
      },
      "t_uint256": {
        "encoding": "inplace",
        "label": "uint256",
        "numberOfBytes": "32"
      }
    }
  }
}